{"abi":[{"type":"function","name":"UPGRADE_INTERFACE_VERSION","inputs":[],"outputs":[{"name":"","type":"string","internalType":"string"}],"stateMutability":"view"},{"type":"function","name":"auctionData","inputs":[{"name":"","type":"uint256","internalType":"uint256"}],"outputs":[{"name":"nftContract","type":"address","internalType":"address"},{"name":"tokenId","type":"uint256","internalType":"uint256"},{"name":"seller","type":"address","internalType":"address"},{"name":"startTime","type":"uint256","internalType":"uint256"},{"name":"duration","type":"uint256","internalType":"uint256"},{"name":"startPrice","type":"uint256","internalType":"uint256"},{"name":"highestBid","type":"uint256","internalType":"uint256"},{"name":"highestBidder","type":"address","internalType":"address"},{"name":"status","type":"uint8","internalType":"enum NFTAuction.AuctionStatus"}],"stateMutability":"view"},{"type":"function","name":"auctionIdCounter","inputs":[],"outputs":[{"name":"","type":"uint256","internalType":"uint256"}],"stateMutability":"view"},{"type":"function","name":"bidAuction","inputs":[{"name":"auctionId","type":"uint256","internalType":"uint256"}],"outputs":[],"stateMutability":"payable"},{"type":"function","name":"cancelAuction","inputs":[{"name":"auctionId","type":"uint256","internalType":"uint256"}],"outputs":[],"stateMutability":"nonpayable"},{"type":"function","name":"createAuction","inputs":[{"name":"nftcontract","type":"address","internalType":"address"},{"name":"tokenId","type":"uint256","internalType":"uint256"},{"name":"startTime","type":"uint256","internalType":"uint256"},{"name":"duration","type":"uint256","internalType":"uint256"},{"name":"startPrice","type":"uint256","internalType":"uint256"}],"outputs":[],"stateMutability":"nonpayable"},{"type":"function","name":"endAuction","inputs":[{"name":"auctionId","type":"uint256","internalType":"uint256"}],"outputs":[],"stateMutability":"nonpayable"},{"type":"function","name":"initialize","inputs":[],"outputs":[],"stateMutability":"nonpayable"},{"type":"function","name":"nftToken2AuctionId","inputs":[{"name":"","type":"bytes32","internalType":"bytes32"}],"outputs":[{"name":"","type":"uint256","internalType":"uint256"}],"stateMutability":"view"},{"type":"function","name":"owner","inputs":[],"outputs":[{"name":"","type":"address","internalType":"address"}],"stateMutability":"view"},{"type":"function","name":"proxiableUUID","inputs":[],"outputs":[{"name":"","type":"bytes32","internalType":"bytes32"}],"stateMutability":"view"},{"type":"function","name":"renounceOwnership","inputs":[],"outputs":[],"stateMutability":"nonpayable"},{"type":"function","name":"transferOwnership","inputs":[{"name":"newOwner","type":"address","internalType":"address"}],"outputs":[],"stateMutability":"nonpayable"},{"type":"function","name":"upgradeToAndCall","inputs":[{"name":"newImplementation","type":"address","internalType":"address"},{"name":"data","type":"bytes","internalType":"bytes"}],"outputs":[],"stateMutability":"payable"},{"type":"event","name":"AuctionCancelled","inputs":[{"name":"auctionId","type":"uint256","indexed":true,"internalType":"uint256"}],"anonymous":false},{"type":"event","name":"AuctionCreated","inputs":[{"name":"auctionId","type":"uint256","indexed":true,"internalType":"uint256"},{"name":"nftContract","type":"address","indexed":true,"internalType":"address"},{"name":"tokenId","type":"uint256","indexed":true,"internalType":"uint256"},{"name":"seller","type":"address","indexed":false,"internalType":"address"},{"name":"startPrice","type":"uint256","indexed":false,"internalType":"uint256"},{"name":"startTime","type":"uint256","indexed":false,"internalType":"uint256"},{"name":"duration","type":"uint256","indexed":false,"internalType":"uint256"}],"anonymous":false},{"type":"event","name":"AuctionEnded","inputs":[{"name":"auctionId","type":"uint256","indexed":true,"internalType":"uint256"},{"name":"winner","type":"address","indexed":true,"internalType":"address"},{"name":"finalPrice","type":"uint256","indexed":false,"internalType":"uint256"}],"anonymous":false},{"type":"event","name":"BidPlaced","inputs":[{"name":"auctionId","type":"uint256","indexed":true,"internalType":"uint256"},{"name":"bidder","type":"address","indexed":true,"internalType":"address"},{"name":"amount","type":"uint256","indexed":false,"internalType":"uint256"}],"anonymous":false},{"type":"event","name":"Initialized","inputs":[{"name":"version","type":"uint64","indexed":false,"internalType":"uint64"}],"anonymous":false},{"type":"event","name":"OwnershipTransferred","inputs":[{"name":"previousOwner","type":"address","indexed":true,"internalType":"address"},{"name":"newOwner","type":"address","indexed":true,"internalType":"address"}],"anonymous":false},{"type":"event","name":"Upgraded","inputs":[{"name":"implementation","type":"address","indexed":true,"internalType":"address"}],"anonymous":false},{"type":"error","name":"AddressEmptyCode","inputs":[{"name":"target","type":"address","internalType":"address"}]},{"type":"error","name":"ERC1967InvalidImplementation","inputs":[{"name":"implementation","type":"address","internalType":"address"}]},{"type":"error","name":"ERC1967NonPayable","inputs":[]},{"type":"error","name":"FailedInnerCall","inputs":[]},{"type":"error","name":"InvalidInitialization","inputs":[]},{"type":"error","name":"NotInitializing","inputs":[]},{"type":"error","name":"OwnableInvalidOwner","inputs":[{"name":"owner","type":"address","internalType":"address"}]},{"type":"error","name":"OwnableUnauthorizedAccount","inputs":[{"name":"account","type":"address","internalType":"address"}]},{"type":"error","name":"UUPSUnauthorizedCallContext","inputs":[]},{"type":"error","name":"UUPSUnsupportedProxiableUUID","inputs":[{"name":"slot","type":"bytes32","internalType":"bytes32"}]}],"bytecode":{"object":"0x60a06040523073ffffffffffffffffffffffffffffffffffffffff1660809073ffffffffffffffffffffffffffffffffffffffff168152503480156041575f5ffd5b506080516136676100685f395f8181611c6301528181611cb80152611e7201526136675ff3fe6080604052600436106100dc575f3560e01c8063961c9ae41161007e578063b9a2de3a11610058578063b9a2de3a14610256578063de0794ef1461027e578063f11defcb146102a8578063f2fde38b146102e4576100dc565b8063961c9ae4146101dc57806396b5a75514610204578063ad3cb1cc1461022c576100dc565b806364a7d7c7116100ba57806364a7d7c71461016a578063715018a6146101865780638129fc1c1461019c5780638da5cb5b146101b2576100dc565b80634f1ef286146100e057806352d1902d146100fc57806355fc62d214610126575b5f5ffd5b6100fa60048036038101906100f5919061266f565b61030c565b005b348015610107575f5ffd5b5061011061032b565b60405161011d91906126e1565b60405180910390f35b348015610131575f5ffd5b5061014c6004803603810190610147919061272d565b61035c565b604051610161999897969594939291906127e9565b60405180910390f35b610184600480360381019061017f919061272d565b610410565b005b348015610191575f5ffd5b5061019a6108ef565b005b3480156101a7575f5ffd5b506101b0610902565b005b3480156101bd575f5ffd5b506101c6610a91565b6040516101d39190612874565b60405180910390f35b3480156101e7575f5ffd5b5061020260048036038101906101fd919061288d565b610ac6565b005b34801561020f575f5ffd5b5061022a6004803603810190610225919061272d565b6113f1565b005b348015610237575f5ffd5b506102406116f5565b60405161024d9190612964565b60405180910390f35b348015610261575f5ffd5b5061027c6004803603810190610277919061272d565b61172e565b005b348015610289575f5ffd5b50610292611bc3565b60405161029f9190612984565b60405180910390f35b3480156102b3575f5ffd5b506102ce60048036038101906102c991906129c7565b611bc9565b6040516102db9190612984565b60405180910390f35b3480156102ef575f5ffd5b5061030a600480360381019061030591906129f2565b611bdd565b005b610314611c61565b61031d82611d47565b6103278282611d52565b5050565b5f610334611e70565b7f360894a13ba1a3210667c828492db98dca3e2076cc3735a920a3ca505d382bbc5f1b905090565b6002602052805f5260405f205f91509050805f015f9054906101000a900473ffffffffffffffffffffffffffffffffffffffff1690806001015490806002015f9054906101000a900473ffffffffffffffffffffffffffffffffffffffff1690806003015490806004015490806005015490806006015490806007015f9054906101000a900473ffffffffffffffffffffffffffffffffffffffff16908060070160149054906101000a900460ff16905089565b5f60025f8381526020019081526020015f2090505f73ffffffffffffffffffffffffffffffffffffffff16816002015f9054906101000a900473ffffffffffffffffffffffffffffffffffffffff1673ffffffffffffffffffffffffffffffffffffffff16036104b5576040517f08c379a00000000000000000000000000000000000000000000000000000000081526004016104ac90612a67565b60405180910390fd5b806003015442116104fb576040517f08c379a00000000000000000000000000000000000000000000000000000000081526004016104f290612acf565b60405180910390fd5b8060040154816003015461050f9190612b1a565b421115610551576040517f08c379a000000000000000000000000000000000000000000000000000000000815260040161054890612b97565b60405180910390fd5b6001600581111561056557610564612776565b5b8160070160149054906101000a900460ff16600581111561058957610588612776565b5b14806105c957505f60058111156105a3576105a2612776565b5b8160070160149054906101000a900460ff1660058111156105c7576105c6612776565b5b145b610608576040517f08c379a00000000000000000000000000000000000000000000000000000000081526004016105ff90612bff565b60405180910390fd5b806002015f9054906101000a900473ffffffffffffffffffffffffffffffffffffffff1673ffffffffffffffffffffffffffffffffffffffff163373ffffffffffffffffffffffffffffffffffffffff1603610699576040517f08c379a000000000000000000000000000000000000000000000000000000000815260040161069090612c67565b60405180910390fd5b806006015434116106df576040517f08c379a00000000000000000000000000000000000000000000000000000000081526004016106d690612ccf565b60405180910390fd5b5f60058111156106f2576106f1612776565b5b8160070160149054906101000a900460ff16600581111561071657610715612776565b5b036107495760018160070160146101000a81548160ff0219169083600581111561074357610742612776565b5b02179055505b8060060154341161078f576040517f08c379a000000000000000000000000000000000000000000000000000000000815260040161078690612d37565b60405180910390fd5b5f73ffffffffffffffffffffffffffffffffffffffff16816007015f9054906101000a900473ffffffffffffffffffffffffffffffffffffffff1673ffffffffffffffffffffffffffffffffffffffff161461085157806007015f9054906101000a900473ffffffffffffffffffffffffffffffffffffffff1673ffffffffffffffffffffffffffffffffffffffff166108fc826006015490811502906040515f60405180830381858888f1935050505015801561084f573d5f5f3e3d5ffd5b505b34816006018190555033816007015f6101000a81548173ffffffffffffffffffffffffffffffffffffffff021916908373ffffffffffffffffffffffffffffffffffffffff1602179055503373ffffffffffffffffffffffffffffffffffffffff16827f0e54eff26401bf69b81b26f60bd85ef47f5d85275c1d268d84f68d6897431c47346040516108e39190612984565b60405180910390a35050565b6108f7611ef7565b6109005f611f7e565b565b5f61090b61204f565b90505f815f0160089054906101000a900460ff161590505f825f015f9054906101000a900467ffffffffffffffff1690505f5f8267ffffffffffffffff161480156109535750825b90505f60018367ffffffffffffffff1614801561098657505f3073ffffffffffffffffffffffffffffffffffffffff163b145b905081158015610994575080155b156109cb576040517ff92ee8a900000000000000000000000000000000000000000000000000000000815260040160405180910390fd5b6001855f015f6101000a81548167ffffffffffffffff021916908367ffffffffffffffff1602179055508315610a18576001855f0160086101000a81548160ff0219169083151502179055505b610a2133612076565b610a2961208a565b600180819055508315610a8a575f855f0160086101000a81548160ff0219169083151502179055507fc7f505b2f371ae2175ee4913f4499e1f2633a7b5936321eed1cdaeb6115181d26001604051610a819190612daa565b60405180910390a15b5050505050565b5f5f610a9b612094565b9050805f015f9054906101000a900473ffffffffffffffffffffffffffffffffffffffff1691505090565b5f73ffffffffffffffffffffffffffffffffffffffff168573ffffffffffffffffffffffffffffffffffffffff1603610b34576040517f08c379a0000000000000000000000000000000000000000000000000000000008152600401610b2b90612e0d565b60405180910390fd5b5f8403610b76576040517f08c379a0000000000000000000000000000000000000000000000000000000008152600401610b6d90612e75565b60405180910390fd5b5f8111610bb8576040517f08c379a0000000000000000000000000000000000000000000000000000000008152600401610baf90612edd565b60405180910390fd5b428311610bfa576040517f08c379a0000000000000000000000000000000000000000000000000000000008152600401610bf190612f45565b60405180910390fd5b5f8211610c3c576040517f08c379a0000000000000000000000000000000000000000000000000000000008152600401610c3390612fad565b60405180910390fd5b5f8590503373ffffffffffffffffffffffffffffffffffffffff168173ffffffffffffffffffffffffffffffffffffffff16636352211e876040518263ffffffff1660e01b8152600401610c909190612984565b602060405180830381865afa158015610cab573d5f5f3e3d5ffd5b505050506040513d601f19601f82011682018060405250810190610ccf9190612fdf565b73ffffffffffffffffffffffffffffffffffffffff1614610d25576040517f08c379a0000000000000000000000000000000000000000000000000000000008152600401610d1c9061307a565b60405180910390fd5b8073ffffffffffffffffffffffffffffffffffffffff1663e985e9c533306040518363ffffffff1660e01b8152600401610d60929190613098565b602060405180830381865afa158015610d7b573d5f5f3e3d5ffd5b505050506040513d601f19601f82011682018060405250810190610d9f91906130f4565b80610e4c57503073ffffffffffffffffffffffffffffffffffffffff168173ffffffffffffffffffffffffffffffffffffffff1663081812fc876040518263ffffffff1660e01b8152600401610df59190612984565b602060405180830381865afa158015610e10573d5f5f3e3d5ffd5b505050506040513d601f19601f82011682018060405250810190610e349190612fdf565b73ffffffffffffffffffffffffffffffffffffffff16145b610e8b576040517f08c379a0000000000000000000000000000000000000000000000000000000008152600401610e8290613169565b60405180910390fd5b5f8686604051602001610e9f9291906131ec565b6040516020818303038152906040528051906020012090505f5f5f8381526020019081526020015f205490505f8111156110ff575f60025f8381526020019081526020015f20604051806101200160405290815f82015f9054906101000a900473ffffffffffffffffffffffffffffffffffffffff1673ffffffffffffffffffffffffffffffffffffffff1673ffffffffffffffffffffffffffffffffffffffff16815260200160018201548152602001600282015f9054906101000a900473ffffffffffffffffffffffffffffffffffffffff1673ffffffffffffffffffffffffffffffffffffffff1673ffffffffffffffffffffffffffffffffffffffff16815260200160038201548152602001600482015481526020016005820154815260200160068201548152602001600782015f9054906101000a900473ffffffffffffffffffffffffffffffffffffffff1673ffffffffffffffffffffffffffffffffffffffff1673ffffffffffffffffffffffffffffffffffffffff1681526020016007820160149054906101000a900460ff16600581111561104657611045612776565b5b600581111561105857611057612776565b5b8152505090506002600581111561107257611071612776565b5b816101000151600581111561108a57611089612776565b5b14806110be57506005808111156110a4576110a3612776565b5b81610100015160058111156110bc576110bb612776565b5b145b6110fd576040517f08c379a00000000000000000000000000000000000000000000000000000000081526004016110f490613261565b60405180910390fd5b505b8273ffffffffffffffffffffffffffffffffffffffff166323b872dd33308a6040518463ffffffff1660e01b815260040161113c9392919061327f565b5f604051808303815f87803b158015611153575f5ffd5b505af1158015611165573d5f5f3e3d5ffd5b505050505f60015f81548092919061117c906132b4565b9190505590505f6040518061012001604052808b73ffffffffffffffffffffffffffffffffffffffff1681526020018a81526020013373ffffffffffffffffffffffffffffffffffffffff1681526020018981526020018881526020018781526020015f81526020015f73ffffffffffffffffffffffffffffffffffffffff1681526020015f600581111561121457611213612776565b5b8152509050815f5f8681526020019081526020015f20819055508060025f8481526020019081526020015f205f820151815f015f6101000a81548173ffffffffffffffffffffffffffffffffffffffff021916908373ffffffffffffffffffffffffffffffffffffffff160217905550602082015181600101556040820151816002015f6101000a81548173ffffffffffffffffffffffffffffffffffffffff021916908373ffffffffffffffffffffffffffffffffffffffff160217905550606082015181600301556080820151816004015560a0820151816005015560c0820151816006015560e0820151816007015f6101000a81548173ffffffffffffffffffffffffffffffffffffffff021916908373ffffffffffffffffffffffffffffffffffffffff1602179055506101008201518160070160146101000a81548160ff0219169083600581111561136e5761136d612776565b5b0217905550905050888a73ffffffffffffffffffffffffffffffffffffffff166001547fd3d4cc8f230826bf4ebd1a2e2904369b0dda86ce1cb1bc8e39ba6f47f91942e0338a8d8d6040516113c694939291906132fb565b60405180910390a460015f8154809291906113e0906132b4565b919050555050505050505050505050565b5f60025f8381526020019081526020015f2090505f73ffffffffffffffffffffffffffffffffffffffff16816002015f9054906101000a900473ffffffffffffffffffffffffffffffffffffffff1673ffffffffffffffffffffffffffffffffffffffff1603611496576040517f08c379a000000000000000000000000000000000000000000000000000000000815260040161148d90612a67565b60405180910390fd5b806002015f9054906101000a900473ffffffffffffffffffffffffffffffffffffffff1673ffffffffffffffffffffffffffffffffffffffff163373ffffffffffffffffffffffffffffffffffffffff1614611527576040517f08c379a000000000000000000000000000000000000000000000000000000000815260040161151e90613388565b60405180910390fd5b8060030154421061156d576040517f08c379a0000000000000000000000000000000000000000000000000000000008152600401611564906133f0565b60405180910390fd5b5f60058111156115805761157f612776565b5b8160070160149054906101000a900460ff1660058111156115a4576115a3612776565b5b146115e4576040517f08c379a00000000000000000000000000000000000000000000000000000000081526004016115db90613458565b60405180910390fd5b60058160070160146101000a81548160ff0219169083600581111561160c5761160b612776565b5b0217905550805f015f9054906101000a900473ffffffffffffffffffffffffffffffffffffffff1673ffffffffffffffffffffffffffffffffffffffff166323b872dd30836002015f9054906101000a900473ffffffffffffffffffffffffffffffffffffffff1684600101546040518463ffffffff1660e01b81526004016116979392919061327f565b5f604051808303815f87803b1580156116ae575f5ffd5b505af11580156116c0573d5f5f3e3d5ffd5b50505050817f2809c7e17bf978fbc7194c0a694b638c4215e9140cacc6c38ca36010b45697df60405160405180910390a25050565b6040518060400160405280600581526020017f352e302e3000000000000000000000000000000000000000000000000000000081525081565b5f60025f8381526020019081526020015f2090505f73ffffffffffffffffffffffffffffffffffffffff16816002015f9054906101000a900473ffffffffffffffffffffffffffffffffffffffff1673ffffffffffffffffffffffffffffffffffffffff16036117d3576040517f08c379a00000000000000000000000000000000000000000000000000000000081526004016117ca90612a67565b60405180910390fd5b806004015481600301546117e79190612b1a565b4211611828576040517f08c379a000000000000000000000000000000000000000000000000000000000815260040161181f906134c0565b60405180910390fd5b6001600581111561183c5761183b612776565b5b8160070160149054906101000a900460ff1660058111156118605761185f612776565b5b146118a0576040517f08c379a000000000000000000000000000000000000000000000000000000000815260040161189790613528565b60405180910390fd5b60028160070160146101000a81548160ff021916908360058111156118c8576118c7612776565b5b02179055505f73ffffffffffffffffffffffffffffffffffffffff16816007015f9054906101000a900473ffffffffffffffffffffffffffffffffffffffff1673ffffffffffffffffffffffffffffffffffffffff1614611abc57806002015f9054906101000a900473ffffffffffffffffffffffffffffffffffffffff1673ffffffffffffffffffffffffffffffffffffffff166108fc826006015490811502906040515f60405180830381858888f1935050505015801561198d573d5f5f3e3d5ffd5b50805f015f9054906101000a900473ffffffffffffffffffffffffffffffffffffffff1673ffffffffffffffffffffffffffffffffffffffff166323b872dd30836007015f9054906101000a900473ffffffffffffffffffffffffffffffffffffffff1684600101546040518463ffffffff1660e01b8152600401611a149392919061327f565b5f604051808303815f87803b158015611a2b575f5ffd5b505af1158015611a3d573d5f5f3e3d5ffd5b50505050806007015f9054906101000a900473ffffffffffffffffffffffffffffffffffffffff1673ffffffffffffffffffffffffffffffffffffffff16827fd2aa34a4fdbbc6dff6a3e56f46e0f3ae2a31d7785ff3487aa5c95c642acea5018360060154604051611aaf9190612984565b60405180910390a3611bbf565b805f015f9054906101000a900473ffffffffffffffffffffffffffffffffffffffff1673ffffffffffffffffffffffffffffffffffffffff166323b872dd30836002015f9054906101000a900473ffffffffffffffffffffffffffffffffffffffff1684600101546040518463ffffffff1660e01b8152600401611b429392919061327f565b5f604051808303815f87803b158015611b59575f5ffd5b505af1158015611b6b573d5f5f3e3d5ffd5b505050505f73ffffffffffffffffffffffffffffffffffffffff16827fd2aa34a4fdbbc6dff6a3e56f46e0f3ae2a31d7785ff3487aa5c95c642acea5015f604051611bb6919061357f565b60405180910390a35b5050565b60015481565b5f602052805f5260405f205f915090505481565b611be5611ef7565b5f73ffffffffffffffffffffffffffffffffffffffff168173ffffffffffffffffffffffffffffffffffffffff1603611c55575f6040517f1e4fbdf7000000000000000000000000000000000000000000000000000000008152600401611c4c9190612874565b60405180910390fd5b611c5e81611f7e565b50565b7f000000000000000000000000000000000000000000000000000000000000000073ffffffffffffffffffffffffffffffffffffffff163073ffffffffffffffffffffffffffffffffffffffff161480611d0e57507f000000000000000000000000000000000000000000000000000000000000000073ffffffffffffffffffffffffffffffffffffffff16611cf56120bb565b73ffffffffffffffffffffffffffffffffffffffff1614155b15611d45576040517fe07c8dba00000000000000000000000000000000000000000000000000000000815260040160405180910390fd5b565b611d4f611ef7565b50565b8173ffffffffffffffffffffffffffffffffffffffff166352d1902d6040518163ffffffff1660e01b8152600401602060405180830381865afa925050508015611dba57506040513d601f19601f82011682018060405250810190611db791906135ac565b60015b611dfb57816040517f4c9c8ce3000000000000000000000000000000000000000000000000000000008152600401611df29190612874565b60405180910390fd5b7f360894a13ba1a3210667c828492db98dca3e2076cc3735a920a3ca505d382bbc5f1b8114611e6157806040517faa1d49a4000000000000000000000000000000000000000000000000000000008152600401611e5891906126e1565b60405180910390fd5b611e6b838361210e565b505050565b7f000000000000000000000000000000000000000000000000000000000000000073ffffffffffffffffffffffffffffffffffffffff163073ffffffffffffffffffffffffffffffffffffffff1614611ef5576040517fe07c8dba00000000000000000000000000000000000000000000000000000000815260040160405180910390fd5b565b611eff612180565b73ffffffffffffffffffffffffffffffffffffffff16611f1d610a91565b73ffffffffffffffffffffffffffffffffffffffff1614611f7c57611f40612180565b6040517f118cdaa7000000000000000000000000000000000000000000000000000000008152600401611f739190612874565b60405180910390fd5b565b5f611f87612094565b90505f815f015f9054906101000a900473ffffffffffffffffffffffffffffffffffffffff16905082825f015f6101000a81548173ffffffffffffffffffffffffffffffffffffffff021916908373ffffffffffffffffffffffffffffffffffffffff1602179055508273ffffffffffffffffffffffffffffffffffffffff168173ffffffffffffffffffffffffffffffffffffffff167f8be0079c531659141344cd1fd0a4f28419497f9722a3daafe3b4186f6b6457e060405160405180910390a3505050565b5f7ff0c57e16840df040f15088dc2f81fe391c3923bec73e23a9662efc9c229c6a00905090565b61207e612187565b612087816121c7565b50565b612092612187565b565b5f7f9016d09d72d40fdae2fd8ceac6b6234c7706214fd39c1cd1e609a0528c199300905090565b5f6120e77f360894a13ba1a3210667c828492db98dca3e2076cc3735a920a3ca505d382bbc5f1b61224b565b5f015f9054906101000a900473ffffffffffffffffffffffffffffffffffffffff16905090565b61211782612254565b8173ffffffffffffffffffffffffffffffffffffffff167fbc7cd75a20ee27fd9adebab32041f755214dbc6bffa90cc0225b39da2e5c2d3b60405160405180910390a25f815111156121735761216d828261231d565b5061217c565b61217b61239d565b5b5050565b5f33905090565b61218f6123d9565b6121c5576040517fd7e6bcf800000000000000000000000000000000000000000000000000000000815260040160405180910390fd5b565b6121cf612187565b5f73ffffffffffffffffffffffffffffffffffffffff168173ffffffffffffffffffffffffffffffffffffffff160361223f575f6040517f1e4fbdf70000000000000000000000000000000000000000000000000000000081526004016122369190612874565b60405180910390fd5b61224881611f7e565b50565b5f819050919050565b5f8173ffffffffffffffffffffffffffffffffffffffff163b036122af57806040517f4c9c8ce30000000000000000000000000000000000000000000000000000000081526004016122a69190612874565b60405180910390fd5b806122db7f360894a13ba1a3210667c828492db98dca3e2076cc3735a920a3ca505d382bbc5f1b61224b565b5f015f6101000a81548173ffffffffffffffffffffffffffffffffffffffff021916908373ffffffffffffffffffffffffffffffffffffffff16021790555050565b60605f5f8473ffffffffffffffffffffffffffffffffffffffff1684604051612346919061361b565b5f60405180830381855af49150503d805f811461237e576040519150601f19603f3d011682016040523d82523d5f602084013e612383565b606091505b50915091506123938583836123f7565b9250505092915050565b5f3411156123d7576040517fb398979f00000000000000000000000000000000000000000000000000000000815260040160405180910390fd5b565b5f6123e261204f565b5f0160089054906101000a900460ff16905090565b60608261240c5761240782612484565b61247c565b5f825114801561243257505f8473ffffffffffffffffffffffffffffffffffffffff163b145b1561247457836040517f9996b31500000000000000000000000000000000000000000000000000000000815260040161246b9190612874565b60405180910390fd5b81905061247d565b5b9392505050565b5f815111156124965780518082602001fd5b6040517f1425ea4200000000000000000000000000000000000000000000000000000000815260040160405180910390fd5b5f604051905090565b5f5ffd5b5f5ffd5b5f73ffffffffffffffffffffffffffffffffffffffff82169050919050565b5f612502826124d9565b9050919050565b612512816124f8565b811461251c575f5ffd5b50565b5f8135905061252d81612509565b92915050565b5f5ffd5b5f5ffd5b5f601f19601f8301169050919050565b7f4e487b71000000000000000000000000000000000000000000000000000000005f52604160045260245ffd5b6125818261253b565b810181811067ffffffffffffffff821117156125a05761259f61254b565b5b80604052505050565b5f6125b26124c8565b90506125be8282612578565b919050565b5f67ffffffffffffffff8211156125dd576125dc61254b565b5b6125e68261253b565b9050602081019050919050565b828183375f83830152505050565b5f61261361260e846125c3565b6125a9565b90508281526020810184848401111561262f5761262e612537565b5b61263a8482856125f3565b509392505050565b5f82601f83011261265657612655612533565b5b8135612666848260208601612601565b91505092915050565b5f5f60408385031215612685576126846124d1565b5b5f6126928582860161251f565b925050602083013567ffffffffffffffff8111156126b3576126b26124d5565b5b6126bf85828601612642565b9150509250929050565b5f819050919050565b6126db816126c9565b82525050565b5f6020820190506126f45f8301846126d2565b92915050565b5f819050919050565b61270c816126fa565b8114612716575f5ffd5b50565b5f8135905061272781612703565b92915050565b5f60208284031215612742576127416124d1565b5b5f61274f84828501612719565b91505092915050565b612761816124f8565b82525050565b612770816126fa565b82525050565b7f4e487b71000000000000000000000000000000000000000000000000000000005f52602160045260245ffd5b600681106127b4576127b3612776565b5b50565b5f8190506127c4826127a3565b919050565b5f6127d3826127b7565b9050919050565b6127e3816127c9565b82525050565b5f610120820190506127fd5f83018c612758565b61280a602083018b612767565b612817604083018a612758565b6128246060830189612767565b6128316080830188612767565b61283e60a0830187612767565b61284b60c0830186612767565b61285860e0830185612758565b6128666101008301846127da565b9a9950505050505050505050565b5f6020820190506128875f830184612758565b92915050565b5f5f5f5f5f60a086880312156128a6576128a56124d1565b5b5f6128b38882890161251f565b95505060206128c488828901612719565b94505060406128d588828901612719565b93505060606128e688828901612719565b92505060806128f788828901612719565b9150509295509295909350565b5f81519050919050565b5f82825260208201905092915050565b8281835e5f83830152505050565b5f61293682612904565b612940818561290e565b935061295081856020860161291e565b6129598161253b565b840191505092915050565b5f6020820190508181035f83015261297c818461292c565b905092915050565b5f6020820190506129975f830184612767565b92915050565b6129a6816126c9565b81146129b0575f5ffd5b50565b5f813590506129c18161299d565b92915050565b5f602082840312156129dc576129db6124d1565b5b5f6129e9848285016129b3565b91505092915050565b5f60208284031215612a0757612a066124d1565b5b5f612a148482850161251f565b91505092915050565b7f41756374696f6e206e6f742065786973747300000000000000000000000000005f82015250565b5f612a5160128361290e565b9150612a5c82612a1d565b602082019050919050565b5f6020820190508181035f830152612a7e81612a45565b9050919050565b7f41756374696f6e206e6f742073746172746564000000000000000000000000005f82015250565b5f612ab960138361290e565b9150612ac482612a85565b602082019050919050565b5f6020820190508181035f830152612ae681612aad565b9050919050565b7f4e487b71000000000000000000000000000000000000000000000000000000005f52601160045260245ffd5b5f612b24826126fa565b9150612b2f836126fa565b9250828201905080821115612b4757612b46612aed565b5b92915050565b7f41756374696f6e20656e646564000000000000000000000000000000000000005f82015250565b5f612b81600d8361290e565b9150612b8c82612b4d565b602082019050919050565b5f6020820190508181035f830152612bae81612b75565b9050919050565b7f41756374696f6e20696e76616c696400000000000000000000000000000000005f82015250565b5f612be9600f8361290e565b9150612bf482612bb5565b602082019050919050565b5f6020820190508181035f830152612c1681612bdd565b9050919050565b7f53656c6c65722063616e6e6f74206269640000000000000000000000000000005f82015250565b5f612c5160118361290e565b9150612c5c82612c1d565b602082019050919050565b5f6020820190508181035f830152612c7e81612c45565b9050919050565b7f42696420746f6f206c6f770000000000000000000000000000000000000000005f82015250565b5f612cb9600b8361290e565b9150612cc482612c85565b602082019050919050565b5f6020820190508181035f830152612ce681612cad565b9050919050565b7f6e656564207468616e206c6173742076616c75652068696768000000000000005f82015250565b5f612d2160198361290e565b9150612d2c82612ced565b602082019050919050565b5f6020820190508181035f830152612d4e81612d15565b9050919050565b5f819050919050565b5f67ffffffffffffffff82169050919050565b5f819050919050565b5f612d94612d8f612d8a84612d55565b612d71565b612d5e565b9050919050565b612da481612d7a565b82525050565b5f602082019050612dbd5f830184612d9b565b92915050565b7f496e76616c6964204e465420636f6e74726163740000000000000000000000005f82015250565b5f612df760148361290e565b9150612e0282612dc3565b602082019050919050565b5f6020820190508181035f830152612e2481612deb565b9050919050565b7f496e76616c696420746f6b656e496400000000000000000000000000000000005f82015250565b5f612e5f600f8361290e565b9150612e6a82612e2b565b602082019050919050565b5f6020820190508181035f830152612e8c81612e53565b9050919050565b7f5374617274207072696365206d757374206265203e20300000000000000000005f82015250565b5f612ec760178361290e565b9150612ed282612e93565b602082019050919050565b5f6020820190508181035f830152612ef481612ebb565b9050919050565b7f53746172742074696d65206d75737420626520696e20667574757265000000005f82015250565b5f612f2f601c8361290e565b9150612f3a82612efb565b602082019050919050565b5f6020820190508181035f830152612f5c81612f23565b9050919050565b7f4475726174696f6e206d757374206265203e20300000000000000000000000005f82015250565b5f612f9760148361290e565b9150612fa282612f63565b602082019050919050565b5f6020820190508181035f830152612fc481612f8b565b9050919050565b5f81519050612fd981612509565b92915050565b5f60208284031215612ff457612ff36124d1565b5b5f61300184828501612fcb565b91505092915050565b7f4f6e6c79204e4654206f776e65722063616e206372656174652061756374696f5f8201527f6e00000000000000000000000000000000000000000000000000000000000000602082015250565b5f61306460218361290e565b915061306f8261300a565b604082019050919050565b5f6020820190508181035f83015261309181613058565b9050919050565b5f6040820190506130ab5f830185612758565b6130b86020830184612758565b9392505050565b5f8115159050919050565b6130d3816130bf565b81146130dd575f5ffd5b50565b5f815190506130ee816130ca565b92915050565b5f60208284031215613109576131086124d1565b5b5f613116848285016130e0565b91505092915050565b7f436f6e7472616374206e6f7420617070726f76656400000000000000000000005f82015250565b5f61315360158361290e565b915061315e8261311f565b602082019050919050565b5f6020820190508181035f83015261318081613147565b9050919050565b5f8160601b9050919050565b5f61319d82613187565b9050919050565b5f6131ae82613193565b9050919050565b6131c66131c1826124f8565b6131a4565b82525050565b5f819050919050565b6131e66131e1826126fa565b6131cc565b82525050565b5f6131f782856131b5565b60148201915061320782846131d5565b6020820191508190509392505050565b7f4e465420616c726561647920696e2061756374696f6e000000000000000000005f82015250565b5f61324b60168361290e565b915061325682613217565b602082019050919050565b5f6020820190508181035f8301526132788161323f565b9050919050565b5f6060820190506132925f830186612758565b61329f6020830185612758565b6132ac6040830184612767565b949350505050565b5f6132be826126fa565b91507fffffffffffffffffffffffffffffffffffffffffffffffffffffffffffffffff82036132f0576132ef612aed565b5b600182019050919050565b5f60808201905061330e5f830187612758565b61331b6020830186612767565b6133286040830185612767565b6133356060830184612767565b95945050505050565b7f4f6e6c792073656c6c65722063616e2063616e63656c000000000000000000005f82015250565b5f61337260168361290e565b915061337d8261333e565b602082019050919050565b5f6020820190508181035f83015261339f81613366565b9050919050565b7f41756374696f6e20616c726561647920737461727465640000000000000000005f82015250565b5f6133da60178361290e565b91506133e5826133a6565b602082019050919050565b5f6020820190508181035f830152613407816133ce565b9050919050565b7f41756374696f6e20616c726561647920616374697665000000000000000000005f82015250565b5f61344260168361290e565b915061344d8261340e565b602082019050919050565b5f6020820190508181035f83015261346f81613436565b9050919050565b7f41756374696f6e206e6f7420656e6465640000000000000000000000000000005f82015250565b5f6134aa60118361290e565b91506134b582613476565b602082019050919050565b5f6020820190508181035f8301526134d78161349e565b9050919050565b7f41756374696f6e206e6f742061637469766500000000000000000000000000005f82015250565b5f61351260128361290e565b915061351d826134de565b602082019050919050565b5f6020820190508181035f83015261353f81613506565b9050919050565b5f819050919050565b5f61356961356461355f84613546565b612d71565b6126fa565b9050919050565b6135798161354f565b82525050565b5f6020820190506135925f830184613570565b92915050565b5f815190506135a68161299d565b92915050565b5f602082840312156135c1576135c06124d1565b5b5f6135ce84828501613598565b91505092915050565b5f81519050919050565b5f81905092915050565b5f6135f5826135d7565b6135ff81856135e1565b935061360f81856020860161291e565b80840191505092915050565b5f61362682846135eb565b91508190509291505056fea264697066735822122044c49454b306f386648314dea47c0a0187cbf659a5f37c008568ec86fd5857a364736f6c63430008210033","linkReferences":{}},"methodIdentifiers":{"UPGRADE_INTERFACE_VERSION()":"ad3cb1cc","auctionData(uint256)":"55fc62d2","auctionIdCounter()":"de0794ef","bidAuction(uint256)":"64a7d7c7","cancelAuction(uint256)":"96b5a755","createAuction(address,uint256,uint256,uint256,uint256)":"961c9ae4","endAuction(uint256)":"b9a2de3a","initialize()":"8129fc1c","nftToken2AuctionId(bytes32)":"f11defcb","owner()":"8da5cb5b","proxiableUUID()":"52d1902d","renounceOwnership()":"715018a6","transferOwnership(address)":"f2fde38b","upgradeToAndCall(address,bytes)":"4f1ef286"},"id":38}